{
  "contractName": "Rouleth",
  "abi": [
    {
      "inputs": [],
      "stateMutability": "nonpayable",
      "type": "constructor"
    },
    {
      "anonymous": false,
      "inputs": [
        {
          "indexed": true,
          "internalType": "bytes32",
          "name": "requestId",
          "type": "bytes32"
        },
        {
          "indexed": true,
          "internalType": "uint256",
          "name": "result",
          "type": "uint256"
        }
      ],
      "name": "BetFinished",
      "type": "event"
    },
    {
      "anonymous": false,
      "inputs": [
        {
          "indexed": true,
          "internalType": "address",
          "name": "previousOwner",
          "type": "address"
        },
        {
          "indexed": true,
          "internalType": "address",
          "name": "newOwner",
          "type": "address"
        }
      ],
      "name": "OwnershipTransferred",
      "type": "event"
    },
    {
      "inputs": [],
      "name": "ROULETTE_NUMBER_COUNT",
      "outputs": [
        {
          "internalType": "uint256",
          "name": "",
          "type": "uint256"
        }
      ],
      "stateMutability": "view",
      "type": "function"
    },
    {
      "inputs": [
        {
          "internalType": "address",
          "name": "",
          "type": "address"
        }
      ],
      "name": "casinoFunds",
      "outputs": [
        {
          "internalType": "uint256",
          "name": "",
          "type": "uint256"
        }
      ],
      "stateMutability": "view",
      "type": "function"
    },
    {
      "inputs": [],
      "name": "casinoReserve",
      "outputs": [
        {
          "internalType": "uint256",
          "name": "",
          "type": "uint256"
        }
      ],
      "stateMutability": "view",
      "type": "function"
    },
    {
      "inputs": [
        {
          "internalType": "bytes32",
          "name": "",
          "type": "bytes32"
        }
      ],
      "name": "gameRounds",
      "outputs": [
        {
          "internalType": "address",
          "name": "gamblerAddress",
          "type": "address"
        },
        {
          "internalType": "enum Rouleth.BetColor",
          "name": "betColor",
          "type": "uint8"
        },
        {
          "internalType": "uint256",
          "name": "ammount",
          "type": "uint256"
        }
      ],
      "stateMutability": "view",
      "type": "function"
    },
    {
      "inputs": [],
      "name": "owner",
      "outputs": [
        {
          "internalType": "address",
          "name": "",
          "type": "address"
        }
      ],
      "stateMutability": "view",
      "type": "function"
    },
    {
      "inputs": [
        {
          "internalType": "bytes32",
          "name": "requestId",
          "type": "bytes32"
        },
        {
          "internalType": "uint256",
          "name": "randomness",
          "type": "uint256"
        }
      ],
      "name": "rawFulfillRandomness",
      "outputs": [],
      "stateMutability": "nonpayable",
      "type": "function"
    },
    {
      "inputs": [],
      "name": "renounceOwnership",
      "outputs": [],
      "stateMutability": "nonpayable",
      "type": "function"
    },
    {
      "inputs": [
        {
          "internalType": "address",
          "name": "newOwner",
          "type": "address"
        }
      ],
      "name": "transferOwnership",
      "outputs": [],
      "stateMutability": "nonpayable",
      "type": "function"
    },
    {
      "inputs": [],
      "name": "topUpCasinoReserve",
      "outputs": [],
      "stateMutability": "payable",
      "type": "function"
    },
    {
      "inputs": [],
      "name": "depositFunds",
      "outputs": [],
      "stateMutability": "payable",
      "type": "function"
    },
    {
      "inputs": [
        {
          "internalType": "uint256",
          "name": "funds",
          "type": "uint256"
        }
      ],
      "name": "withdrawFunds",
      "outputs": [],
      "stateMutability": "nonpayable",
      "type": "function"
    },
    {
      "inputs": [
        {
          "internalType": "address",
          "name": "gambler",
          "type": "address"
        }
      ],
      "name": "fundsOverview",
      "outputs": [
        {
          "internalType": "uint256",
          "name": "",
          "type": "uint256"
        }
      ],
      "stateMutability": "view",
      "type": "function"
    },
    {
      "inputs": [
        {
          "internalType": "enum Rouleth.BetColor",
          "name": "betColor",
          "type": "uint8"
        },
        {
          "internalType": "uint256",
          "name": "betAmount",
          "type": "uint256"
        }
      ],
      "name": "placeBetOnColor",
      "outputs": [
        {
          "internalType": "bytes32",
          "name": "requestId",
          "type": "bytes32"
        }
      ],
      "stateMutability": "payable",
      "type": "function"
    }
  ],
  "bytecode": "0x60c0604052604051806104a001604052806000151515158152602001600115151515815260200160001515151581526020016001151515158152602001600015151515815260200160011515151581526020016000151515158152602001600115151515815260200160001515151581526020016001151515158152602001600015151515815260200160001515151581526020016001151515158152602001600015151515815260200160011515151581526020016000151515158152602001600115151515815260200160001515151581526020016001151515158152602001600115151515815260200160001515151581526020016001151515158152602001600015151515815260200160011515151581526020016000151515158152602001600115151515815260200160001515151581526020016001151515158152602001600015151515815260200160001515151581526020016001151515158152602001600015151515815260200160011515151581526020016000151515158152602001600115151515815260200160001515151581526020016001151515158152506003906025620001b79291906200038c565b50348015620001c557600080fd5b5073dd3782915140c8f3b190b5d67eac6dc5760c46e973a36085f69e2889c224210f603d836748e7dc00886200021062000204620002c060201b60201c565b620002c860201b60201c565b600180819055508173ffffffffffffffffffffffffffffffffffffffff1660a08173ffffffffffffffffffffffffffffffffffffffff16815250508073ffffffffffffffffffffffffffffffffffffffff1660808173ffffffffffffffffffffffffffffffffffffffff168152505050507f6c3699283bda56ad74f6b855546325b68d482e983852a7a82979cc4807b641f460001b60058190555067016345785d8a00006006819055506200044b565b600033905090565b60008060009054906101000a900473ffffffffffffffffffffffffffffffffffffffff169050816000806101000a81548173ffffffffffffffffffffffffffffffffffffffff021916908373ffffffffffffffffffffffffffffffffffffffff1602179055508173ffffffffffffffffffffffffffffffffffffffff168173ffffffffffffffffffffffffffffffffffffffff167f8be0079c531659141344cd1fd0a4f28419497f9722a3daafe3b4186f6b6457e060405160405180910390a35050565b826025601f01602090048101928215620004195791602002820160005b83821115620003e857835183826101000a81548160ff0219169083151502179055509260200192600101602081600001049283019260010302620003a9565b8015620004175782816101000a81549060ff0219169055600101602081600001049283019260010302620003e8565b505b5090506200042891906200042c565b5090565b5b80821115620004475760008160009055506001016200042d565b5090565b60805160a051611f666200047f60003960008181610a0b0152610da601526000818161080f0152610d6a0152611f666000f3fe6080604052600436106100c25760003560e01c80638da5cb5b1161007f578063d759645011610059578063d75964501461023a578063e2c41dbc14610279578063f2fde38b14610283578063fe688489146102ac576100c2565b80638da5cb5b146101bb57806394985ddd146101e6578063971941f91461020f576100c2565b8063155dd5ee146100c7578063166235c7146100f0578063282a378f1461012d5780635f5c88bd14610137578063715018a61461017457806381d8c9291461018b575b600080fd5b3480156100d357600080fd5b506100ee60048036038101906100e99190611269565b6102d7565b005b3480156100fc57600080fd5b50610117600480360381019061011291906112f4565b610570565b6040516101249190611330565b60405180910390f35b6101356105b9565b005b34801561014357600080fd5b5061015e600480360381019061015991906112f4565b610693565b60405161016b9190611330565b60405180910390f35b34801561018057600080fd5b506101896106ab565b005b6101a560048036038101906101a09190611370565b610733565b6040516101b291906113c9565b60405180910390f35b3480156101c757600080fd5b506101d06109e0565b6040516101dd91906113f3565b60405180910390f35b3480156101f257600080fd5b5061020d6004803603810190610208919061143a565b610a09565b005b34801561021b57600080fd5b50610224610aa5565b6040516102319190611330565b60405180910390f35b34801561024657600080fd5b50610261600480360381019061025c919061147a565b610aab565b6040516102709392919061151e565b60405180910390f35b610281610b02565b005b34801561028f57600080fd5b506102aa60048036038101906102a591906112f4565b610b9d565b005b3480156102b857600080fd5b506102c1610c95565b6040516102ce9190611330565b60405180910390f35b6000600860003373ffffffffffffffffffffffffffffffffffffffff1673ffffffffffffffffffffffffffffffffffffffff1681526020019081526020016000205411610359576040517f08c379a0000000000000000000000000000000000000000000000000000000008152600401610350906115d8565b60405180910390fd5b8080600860003373ffffffffffffffffffffffffffffffffffffffff1673ffffffffffffffffffffffffffffffffffffffff1681526020019081526020016000205410156103dc576040517f08c379a00000000000000000000000000000000000000000000000000000000081526004016103d39061166a565b60405180910390fd5b60026001541415610422576040517f08c379a0000000000000000000000000000000000000000000000000000000008152600401610419906116d6565b60405180910390fd5b600260018190555081600860003373ffffffffffffffffffffffffffffffffffffffff1673ffffffffffffffffffffffffffffffffffffffff168152602001908152602001600020546104759190611725565b600860003373ffffffffffffffffffffffffffffffffffffffff1673ffffffffffffffffffffffffffffffffffffffff1681526020019081526020016000208190555060003373ffffffffffffffffffffffffffffffffffffffff16836040516104de9061178a565b60006040518083038185875af1925050503d806000811461051b576040519150601f19603f3d011682016040523d82523d6000602084013e610520565b606091505b5050905080610564576040517f08c379a000000000000000000000000000000000000000000000000000000000815260040161055b906117eb565b60405180910390fd5b50600180819055505050565b6000600860008373ffffffffffffffffffffffffffffffffffffffff1673ffffffffffffffffffffffffffffffffffffffff168152602001908152602001600020549050919050565b6105c1610c9a565b73ffffffffffffffffffffffffffffffffffffffff166105df6109e0565b73ffffffffffffffffffffffffffffffffffffffff1614610635576040517f08c379a000000000000000000000000000000000000000000000000000000000815260040161062c90611857565b60405180910390fd5b60003411610678576040517f08c379a000000000000000000000000000000000000000000000000000000000815260040161066f906118e9565b60405180910390fd5b346007600082825461068a9190611909565b92505081905550565b60086020528060005260406000206000915090505481565b6106b3610c9a565b73ffffffffffffffffffffffffffffffffffffffff166106d16109e0565b73ffffffffffffffffffffffffffffffffffffffff1614610727576040517f08c379a000000000000000000000000000000000000000000000000000000000815260040161071e90611857565b60405180910390fd5b6107316000610ca2565b565b600081600281610743919061195f565b6007541015610787576040517f08c379a000000000000000000000000000000000000000000000000000000000815260040161077e90611a2b565b60405180910390fd5b8280600860003373ffffffffffffffffffffffffffffffffffffffff1673ffffffffffffffffffffffffffffffffffffffff16815260200190815260200160002054101561080a576040517f08c379a000000000000000000000000000000000000000000000000000000000815260040161080190611a97565b60405180910390fd5b6006547f000000000000000000000000000000000000000000000000000000000000000073ffffffffffffffffffffffffffffffffffffffff166370a08231306040518263ffffffff1660e01b815260040161086691906113f3565b602060405180830381865afa158015610883573d6000803e3d6000fd5b505050506040513d601f19601f820116820180604052508101906108a79190611acc565b10156108e8576040517f08c379a00000000000000000000000000000000000000000000000000000000081526004016108df90611b6b565b60405180910390fd5b6108f6600554600654610d66565b9250600060405180606001604052803373ffffffffffffffffffffffffffffffffffffffff168152602001876001811115610934576109336114a7565b5b8152602001868152509050806009600086815260200190815260200160002060008201518160000160006101000a81548173ffffffffffffffffffffffffffffffffffffffff021916908373ffffffffffffffffffffffffffffffffffffffff16021790555060208201518160000160146101000a81548160ff021916908360018111156109c5576109c46114a7565b5b02179055506040820151816001015590505050505092915050565b60008060009054906101000a900473ffffffffffffffffffffffffffffffffffffffff16905090565b7f000000000000000000000000000000000000000000000000000000000000000073ffffffffffffffffffffffffffffffffffffffff163373ffffffffffffffffffffffffffffffffffffffff1614610a97576040517f08c379a0000000000000000000000000000000000000000000000000000000008152600401610a8e90611bd7565b60405180910390fd5b610aa18282610eb9565b5050565b60075481565b60096020528060005260406000206000915090508060000160009054906101000a900473ffffffffffffffffffffffffffffffffffffffff16908060000160149054906101000a900460ff16908060010154905083565b60003411610b45576040517f08c379a0000000000000000000000000000000000000000000000000000000008152600401610b3c906118e9565b60405180910390fd5b34600860003373ffffffffffffffffffffffffffffffffffffffff1673ffffffffffffffffffffffffffffffffffffffff1681526020019081526020016000206000828254610b949190611909565b92505081905550565b610ba5610c9a565b73ffffffffffffffffffffffffffffffffffffffff16610bc36109e0565b73ffffffffffffffffffffffffffffffffffffffff1614610c19576040517f08c379a0000000000000000000000000000000000000000000000000000000008152600401610c1090611857565b60405180910390fd5b600073ffffffffffffffffffffffffffffffffffffffff168173ffffffffffffffffffffffffffffffffffffffff161415610c89576040517f08c379a0000000000000000000000000000000000000000000000000000000008152600401610c8090611c69565b60405180910390fd5b610c9281610ca2565b50565b602581565b600033905090565b60008060009054906101000a900473ffffffffffffffffffffffffffffffffffffffff169050816000806101000a81548173ffffffffffffffffffffffffffffffffffffffff021916908373ffffffffffffffffffffffffffffffffffffffff1602179055508173ffffffffffffffffffffffffffffffffffffffff168173ffffffffffffffffffffffffffffffffffffffff167f8be0079c531659141344cd1fd0a4f28419497f9722a3daafe3b4186f6b6457e060405160405180910390a35050565b60007f000000000000000000000000000000000000000000000000000000000000000073ffffffffffffffffffffffffffffffffffffffff16634000aea07f000000000000000000000000000000000000000000000000000000000000000084866000604051602001610dda929190611c89565b6040516020818303038152906040526040518463ffffffff1660e01b8152600401610e0793929190611d4b565b6020604051808303816000875af1158015610e26573d6000803e3d6000fd5b505050506040513d601f19601f82011682018060405250810190610e4a9190611dc1565b506000610e6d8460003060026000898152602001908152602001600020546111bf565b905060016002600086815260200190815260200160002054610e8f9190611909565b6002600086815260200190815260200160002081905550610eb084826111fb565b91505092915050565b6000602582610ec89190611e1d565b90506000600960008581526020019081526020016000206040518060600160405290816000820160009054906101000a900473ffffffffffffffffffffffffffffffffffffffff1673ffffffffffffffffffffffffffffffffffffffff1673ffffffffffffffffffffffffffffffffffffffff1681526020016000820160149054906101000a900460ff166001811115610f6557610f646114a7565b5b6001811115610f7757610f766114a7565b5b8152602001600182015481525050905060008083149050600060038460258110610fa457610fa3611e4e565b5b602091828204019190069054906101000a900460ff16610fc5576000610fc8565b60015b9050811561105057826040015160076000828254610fe69190611909565b92505081905550826040015160086000856000015173ffffffffffffffffffffffffffffffffffffffff1673ffffffffffffffffffffffffffffffffffffffff16815260200190815260200160002060008282546110449190611725565b92505081905550611189565b82602001516001811115611067576110666114a7565b5b81600181111561107a576110796114a7565b5b141561110c5760028360400151611091919061195f565b600760008282546110a29190611725565b92505081905550826040015160086000856000015173ffffffffffffffffffffffffffffffffffffffff1673ffffffffffffffffffffffffffffffffffffffff16815260200190815260200160002060008282546111009190611909565b92505081905550611188565b8260400151600760008282546111229190611909565b92505081905550826040015160086000856000015173ffffffffffffffffffffffffffffffffffffffff1673ffffffffffffffffffffffffffffffffffffffff16815260200190815260200160002060008282546111809190611725565b925050819055505b5b83867ff5a0f0e7f586ddc445ac7cecb91f00d4e2f330ae918f41a9cd849d305b3554a360405160405180910390a3505050505050565b6000848484846040516020016111d89493929190611e7d565b6040516020818303038152906040528051906020012060001c9050949350505050565b60008282604051602001611210929190611f04565b60405160208183030381529060405280519060200120905092915050565b600080fd5b6000819050919050565b61124681611233565b811461125157600080fd5b50565b6000813590506112638161123d565b92915050565b60006020828403121561127f5761127e61122e565b5b600061128d84828501611254565b91505092915050565b600073ffffffffffffffffffffffffffffffffffffffff82169050919050565b60006112c182611296565b9050919050565b6112d1816112b6565b81146112dc57600080fd5b50565b6000813590506112ee816112c8565b92915050565b60006020828403121561130a5761130961122e565b5b6000611318848285016112df565b91505092915050565b61132a81611233565b82525050565b60006020820190506113456000830184611321565b92915050565b6002811061135857600080fd5b50565b60008135905061136a8161134b565b92915050565b600080604083850312156113875761138661122e565b5b60006113958582860161135b565b92505060206113a685828601611254565b9150509250929050565b6000819050919050565b6113c3816113b0565b82525050565b60006020820190506113de60008301846113ba565b92915050565b6113ed816112b6565b82525050565b600060208201905061140860008301846113e4565b92915050565b611417816113b0565b811461142257600080fd5b50565b6000813590506114348161140e565b92915050565b600080604083850312156114515761145061122e565b5b600061145f85828601611425565b925050602061147085828601611254565b9150509250929050565b6000602082840312156114905761148f61122e565b5b600061149e84828501611425565b91505092915050565b7f4e487b7100000000000000000000000000000000000000000000000000000000600052602160045260246000fd5b600281106114e7576114e66114a7565b5b50565b60008190506114f8826114d6565b919050565b6000611508826114ea565b9050919050565b611518816114fd565b82525050565b600060608201905061153360008301866113e4565b611540602083018561150f565b61154d6040830184611321565b949350505050565b600082825260208201905092915050565b7f596f752068617665206e6f206465706f7369747320696e20746865206361736960008201527f6e6f210000000000000000000000000000000000000000000000000000000000602082015250565b60006115c2602383611555565b91506115cd82611566565b604082019050919050565b600060208201905081810360008301526115f1816115b5565b9050919050565b7f526571756573746564207769746864726177616c20657863656564732074686560008201527f20617661696c61626c65207769746864726177616c20616d6d6f756e74210000602082015250565b6000611654603e83611555565b915061165f826115f8565b604082019050919050565b6000602082019050818103600083015261168381611647565b9050919050565b7f5265656e7472616e637947756172643a207265656e7472616e742063616c6c00600082015250565b60006116c0601f83611555565b91506116cb8261168a565b602082019050919050565b600060208201905081810360008301526116ef816116b3565b9050919050565b7f4e487b7100000000000000000000000000000000000000000000000000000000600052601160045260246000fd5b600061173082611233565b915061173b83611233565b92508282101561174e5761174d6116f6565b5b828203905092915050565b600081905092915050565b50565b6000611774600083611759565b915061177f82611764565b600082019050919050565b600061179582611767565b9150819050919050565b7f455448207769746864726177616c206661696c65642100000000000000000000600082015250565b60006117d5601683611555565b91506117e08261179f565b602082019050919050565b60006020820190508181036000830152611804816117c8565b9050919050565b7f4f776e61626c653a2063616c6c6572206973206e6f7420746865206f776e6572600082015250565b6000611841602083611555565b915061184c8261180b565b602082019050919050565b6000602082019050818103600083015261187081611834565b9050919050565b7f4d7573742073656e642045544820746f206465706f7369742066756e6473206960008201527f6e2074686520636173696e6f2100000000000000000000000000000000000000602082015250565b60006118d3602d83611555565b91506118de82611877565b604082019050919050565b60006020820190508181036000830152611902816118c6565b9050919050565b600061191482611233565b915061191f83611233565b9250827fffffffffffffffffffffffffffffffffffffffffffffffffffffffffffffffff03821115611954576119536116f6565b5b828201905092915050565b600061196a82611233565b915061197583611233565b9250817fffffffffffffffffffffffffffffffffffffffffffffffffffffffffffffffff04831182151516156119ae576119ad6116f6565b5b828202905092915050565b7f4e6f7420656e6f7567682066756e647320696e2074686520436173696e6f205260008201527f6573657276652120506c65617365206c6f77657220796f757220626574732100602082015250565b6000611a15603f83611555565b9150611a20826119b9565b604082019050919050565b60006020820190508181036000830152611a4481611a08565b9050919050565b7f4e6f7420656e6f7567682066756e647320746f20706c61636520612062657421600082015250565b6000611a81602083611555565b9150611a8c82611a4b565b602082019050919050565b60006020820190508181036000830152611ab081611a74565b9050919050565b600081519050611ac68161123d565b92915050565b600060208284031215611ae257611ae161122e565b5b6000611af084828501611ab7565b91505092915050565b7f4e6f7420656e6f756768204c494e4b202d2066696c6c20636f6e74726163742060008201527f7769746820666175636574000000000000000000000000000000000000000000602082015250565b6000611b55602b83611555565b9150611b6082611af9565b604082019050919050565b60006020820190508181036000830152611b8481611b48565b9050919050565b7f4f6e6c7920565246436f6f7264696e61746f722063616e2066756c66696c6c00600082015250565b6000611bc1601f83611555565b9150611bcc82611b8b565b602082019050919050565b60006020820190508181036000830152611bf081611bb4565b9050919050565b7f4f776e61626c653a206e6577206f776e657220697320746865207a65726f206160008201527f6464726573730000000000000000000000000000000000000000000000000000602082015250565b6000611c53602683611555565b9150611c5e82611bf7565b604082019050919050565b60006020820190508181036000830152611c8281611c46565b9050919050565b6000604082019050611c9e60008301856113ba565b611cab6020830184611321565b9392505050565b600081519050919050565b600082825260208201905092915050565b60005b83811015611cec578082015181840152602081019050611cd1565b83811115611cfb576000848401525b50505050565b6000601f19601f8301169050919050565b6000611d1d82611cb2565b611d278185611cbd565b9350611d37818560208601611cce565b611d4081611d01565b840191505092915050565b6000606082019050611d6060008301866113e4565b611d6d6020830185611321565b8181036040830152611d7f8184611d12565b9050949350505050565b60008115159050919050565b611d9e81611d89565b8114611da957600080fd5b50565b600081519050611dbb81611d95565b92915050565b600060208284031215611dd757611dd661122e565b5b6000611de584828501611dac565b91505092915050565b7f4e487b7100000000000000000000000000000000000000000000000000000000600052601260045260246000fd5b6000611e2882611233565b9150611e3383611233565b925082611e4357611e42611dee565b5b828206905092915050565b7f4e487b7100000000000000000000000000000000000000000000000000000000600052603260045260246000fd5b6000608082019050611e9260008301876113ba565b611e9f6020830186611321565b611eac60408301856113e4565b611eb96060830184611321565b95945050505050565b6000819050919050565b611edd611ed8826113b0565b611ec2565b82525050565b6000819050919050565b611efe611ef982611233565b611ee3565b82525050565b6000611f108285611ecc565b602082019150611f208284611eed565b602082019150819050939250505056fea264697066735822122069298b30f5929c972ba3b537f1a0bf439cedb0819bc8337352c19b3c3f6e0ab664736f6c634300080a0033",
  "immutableReferences": {
    "73": [
      {
        "length": 32,
        "start": 2063
      },
      {
        "length": 32,
        "start": 3434
      }
    ],
    "75": [
      {
        "length": 32,
        "start": 2571
      },
      {
        "length": 32,
        "start": 3494
      }
    ]
  },
  "source": "// SPDX-License-Identifier: MIT\r\npragma solidity ^0.8.0;\r\n\r\nimport \"@openzeppelin/contracts/access/Ownable.sol\";\r\nimport \"@openzeppelin/contracts/security/ReentrancyGuard.sol\";\r\nimport \"@chainlink/contracts/src/v0.8/VRFConsumerBase.sol\";\r\n\r\n/// @title Roulette Simulator\r\n/// @author Dimitar Bochvarovski\r\n/// @notice Gambler can bet if the number on the roulette is black or red\r\n/// @dev Random number is generated using the Chainlink VRF\r\ncontract Rouleth is Ownable,ReentrancyGuard,VRFConsumerBase {\r\n\r\n  enum BetColor {\r\n    BLACK,\r\n    RED\r\n  }\r\n\r\n  struct Bet {\r\n    address gamblerAddress;\r\n    BetColor betColor;\r\n    uint256 ammount;\r\n  }\r\n\r\n  /// @notice Array with 37 items, that represents the numbers in European roulette (0-36).\r\n  /// @dev Used as a helper to determine whether the generated random number is red or black\r\n  bool[37] isNumberRed = [false, true, false, true, false, true, false, true, false, true, false, false, true, false, true, false, true, false, true, true, false, true, false, true, false, true, false, true, false, false, true, false, true, false, true, false, true];\r\n  \r\n  uint256 public constant ROULETTE_NUMBER_COUNT = 37;\r\n\r\n\r\n  /// @dev ID for the VRF keypair that the Chainlink Oracle commits to. This is provided from Chainlink\r\n  bytes32 internal keyHash;\r\n  \r\n  /// @dev Every time random number is generated the contract must pay fee for the service in LINK\r\n  /// @dev Minimum LINK price for VRF service\r\n  uint256 internal fee;\r\n  \r\n  /// @notice Ammount of ETH held by the Casino\r\n  uint256 public casinoReserve;\r\n\r\n  /// @notice Ammount of ETH each gambler has in the Casino\r\n  mapping(address => uint256) public casinoFunds;\r\n\r\n  /// @dev Every time random number is requested, requestId is generated by the Chainlink Oracle and is mapped with the Bet details\r\n  mapping(bytes32 => Bet) public gameRounds;\r\n\r\n\r\n\r\n  /// @notice Emitted when a gambler places a bet\r\n  /// @param requestId Request ID\r\n  /// @param result Number on the Roulette, randomly generated number\r\n  /// @dev Every time a bet is placed, a callback function fulfillRandomness which generates a rundom number is called, we are using this event to notify the frontend that the number has been generated\r\n  event BetFinished(bytes32 indexed requestId, uint256 indexed result);\r\n\r\n\r\n\r\n  modifier canDeposit {\r\n    require(msg.value > 0, \"Must send ETH to deposit funds in the casino!\");\r\n    _;\r\n  }\r\n\r\n  modifier canWithdraw(uint256 _funds){\r\n    require(casinoFunds[msg.sender] >= _funds, \"Requested withdrawal exceeds the available withdrawal ammount!\");\r\n    _;\r\n  }\r\n\r\n  modifier canPlaceBet(uint256 _betAmount){\r\n    require(casinoFunds[msg.sender] >= _betAmount, \"Not enough funds to place a bet!\");\r\n    _;\r\n  }\r\n\r\n  modifier hasFunds {\r\n    require(casinoFunds[msg.sender] > 0, \"You have no deposits in the casino!\");\r\n    _;\r\n  }\r\n\r\n  modifier hasReserves(uint256 _betAmount) {\r\n    require(casinoReserve >= _betAmount*2, \"Not enough funds in the Casino Reserve! Please lower your bets!\");\r\n    _;\r\n  }\r\n\r\n\r\n\r\n  /// @dev Chainlink VRF Coordinator address: 0xdD3782915140c8f3b190B5D67eAc6dc5760C46E9\r\n  /// @dev LINK token address:  0xa36085F69e2889c224210F603D836748e7dC0088\r\n  constructor() \r\n    VRFConsumerBase(\r\n      0xdD3782915140c8f3b190B5D67eAc6dc5760C46E9,\r\n      0xa36085F69e2889c224210F603D836748e7dC0088\r\n    )\r\n  {\r\n    keyHash = 0x6c3699283bda56ad74f6b855546325b68d482e983852a7a82979cc4807b641f4;\r\n    fee = 0.1 * 10 ** 18; // 0.1 LINK (Varies by network)\r\n  }\r\n  \r\n\r\n\r\n  /// @notice Deposit ETH to the Casino reserve\r\n  /// @dev Only the owner of the contract can deposit funds\r\n  function topUpCasinoReserve() external payable\r\n    onlyOwner\r\n    canDeposit {\r\n\r\n      casinoReserve += msg.value;\r\n  }\r\n\r\n  /// @notice Gambler deposits funds to the Casino to be able to place bets\r\n  function depositFunds() external payable\r\n    canDeposit {\r\n\r\n      casinoFunds[msg.sender] += msg.value;\r\n  }\r\n\r\n  /// @notice Gambler withdraws funds from his balance in the Casino to his MetaMask wallet\r\n  /// @dev Reentrancy Guard is added to this function using Openzeppelin ReentrancyGuard.sol\r\n  function withdrawFunds(uint256 funds) external\r\n    hasFunds\r\n    canWithdraw(funds)\r\n    nonReentrant {\r\n\r\n      casinoFunds[msg.sender] = casinoFunds[msg.sender] - funds;\r\n      (bool success, ) = msg.sender.call{value: funds}(\"\");\r\n      require(success, \"ETH withdrawal failed!\");\r\n  }\r\n\r\n  /// @notice Ammount of ETH in the Casino for a particular gambler\r\n  /// @param gambler MetaMask wallet address of the gambler\r\n  /// @return Ammount of ETH that the gambler has in the Casino (in wei)\r\n  function fundsOverview(address gambler) public view returns (uint256) {\r\n    return casinoFunds[gambler];\r\n  }\r\n\r\n  /// @notice Place a bet in the Casino\r\n  /// @param betColor Number of color that the gembler has bet on (black or white)\r\n  /// @param betAmount Amount of ETH that the gambler has used for the bet (in wei)\r\n  /// @return requestId which is used in the fulfillRandomness callback functions\r\n  /// @dev Requests randomness from the Chainlink Oracle\r\n  function placeBetOnColor(BetColor betColor, uint256 betAmount) public payable\r\n    hasReserves(betAmount)\r\n    canPlaceBet(betAmount)\r\n    returns (bytes32 requestId) {\r\n      require(LINK.balanceOf(address(this)) >= fee, \"Not enough LINK - fill contract with faucet\");\r\n\r\n      requestId = requestRandomness(keyHash, fee);\r\n      Bet memory currentBet = Bet(msg.sender, betColor, betAmount);\r\n      gameRounds[requestId] = currentBet;\r\n  }\r\n\r\n  // TODO: make possible for the gambler to bet on odd or even number\r\n  /* function placeBetOnOddEven(bool oddOrEven, uint256 betAmount) public payable\r\n    hasReserves(betAmount)\r\n    canPlaceBet(betAmount) {\r\n      require(LINK.balanceOf(address(this)) >= fee, \"Not enough LINK - fill contract with faucet\");\r\n\r\n      \r\n  } */\r\n\r\n  // TODO: make possible for the gambler to bet on specific number\r\n  /*function placeBetOnNumber(uint256 number, uint256 betAmount) public payable\r\n    hasReserves(betAmount)\r\n    canPlaceBet(betAmount) {\r\n      require(LINK.balanceOf(address(this)) >= fee, \"Not enough LINK - fill contract with faucet\");\r\n\r\n  } */\r\n\r\n \r\n  /// @notice The function that generates the random number\r\n  /// @param requestId The requestId for which the randomness is generated, we use it to track for which bet the random number is generated\r\n  /// @param randomness The randomness generated from the oracle\r\n  /// @dev We wait for this function to be called and act upon that, whether we need to withdraw funds from the casino reserve, and add them to the gembler funds or vice versa\r\n  function fulfillRandomness(bytes32 requestId, uint256 randomness) internal override {\r\n    \r\n    uint256 roulethResult = randomness % ROULETTE_NUMBER_COUNT;\r\n\r\n    Bet memory currentBet = gameRounds[requestId];\r\n\r\n    bool isZero = roulethResult == 0;\r\n    BetColor _betColor = isNumberRed[roulethResult] ? BetColor.RED : BetColor.BLACK;\r\n\r\n    if(isZero) {\r\n      casinoReserve += currentBet.ammount;\r\n      casinoFunds[currentBet.gamblerAddress] -= currentBet.ammount;\r\n    } \r\n    else if (_betColor == currentBet.betColor) {\r\n      casinoReserve -= currentBet.ammount*2;\r\n      casinoFunds[currentBet.gamblerAddress] += currentBet.ammount;\r\n    } else {\r\n      casinoReserve += currentBet.ammount;\r\n      casinoFunds[currentBet.gamblerAddress] -= currentBet.ammount;\r\n    }\r\n\r\n    emit BetFinished(requestId, roulethResult);\r\n  }\r\n}",
  "sourcePath": "C:\\Users\\Web3\\Desktop\\Rouleth\\contracts\\Rouleth.sol",
  "compiler": {
    "name": "solc",
    "version": "0.8.10+commit.fc410830.Emscripten.clang"
  },
  "schemaVersion": "3.4.3",
  "updatedAt": "2021-11-28T20:16:14.344Z",
  "devdoc": {
    "author": "Dimitar Bochvarovski",
    "details": "Random number is generated using the Chainlink VRF",
    "events": {
      "BetFinished(bytes32,uint256)": {
        "details": "Every time a bet is placed, a callback function fulfillRandomness which generates a rundom number is called, we are using this event to notify the frontend that the number has been generated",
        "params": {
          "requestId": "Request ID",
          "result": "Number on the Roulette, randomly generated number"
        }
      }
    },
    "kind": "dev",
    "methods": {
      "constructor": {
        "details": "Chainlink VRF Coordinator address: 0xdD3782915140c8f3b190B5D67eAc6dc5760C46E9LINK token address:  0xa36085F69e2889c224210F603D836748e7dC0088"
      },
      "fundsOverview(address)": {
        "params": {
          "gambler": "MetaMask wallet address of the gambler"
        },
        "returns": {
          "_0": "Ammount of ETH that the gambler has in the Casino (in wei)"
        }
      },
      "owner()": {
        "details": "Returns the address of the current owner."
      },
      "placeBetOnColor(uint8,uint256)": {
        "details": "Requests randomness from the Chainlink Oracle",
        "params": {
          "betAmount": "Amount of ETH that the gambler has used for the bet (in wei)",
          "betColor": "Number of color that the gembler has bet on (black or white)"
        },
        "returns": {
          "requestId": "which is used in the fulfillRandomness callback functions"
        }
      },
      "renounceOwnership()": {
        "details": "Leaves the contract without owner. It will not be possible to call `onlyOwner` functions anymore. Can only be called by the current owner. NOTE: Renouncing ownership will leave the contract without an owner, thereby removing any functionality that is only available to the owner."
      },
      "topUpCasinoReserve()": {
        "details": "Only the owner of the contract can deposit funds"
      },
      "transferOwnership(address)": {
        "details": "Transfers ownership of the contract to a new account (`newOwner`). Can only be called by the current owner."
      },
      "withdrawFunds(uint256)": {
        "details": "Reentrancy Guard is added to this function using Openzeppelin ReentrancyGuard.sol"
      }
    },
    "stateVariables": {
      "fee": {
        "details": "Every time random number is generated the contract must pay fee for the service in LINKMinimum LINK price for VRF service"
      },
      "gameRounds": {
        "details": "Every time random number is requested, requestId is generated by the Chainlink Oracle and is mapped with the Bet details"
      },
      "isNumberRed": {
        "details": "Used as a helper to determine whether the generated random number is red or black"
      },
      "keyHash": {
        "details": "ID for the VRF keypair that the Chainlink Oracle commits to. This is provided from Chainlink"
      }
    },
    "title": "Roulette Simulator",
    "version": 1
  },
  "userdoc": {
    "events": {
      "BetFinished(bytes32,uint256)": {
        "notice": "Emitted when a gambler places a bet"
      }
    },
    "kind": "user",
    "methods": {
      "casinoFunds(address)": {
        "notice": "Ammount of ETH each gambler has in the Casino"
      },
      "casinoReserve()": {
        "notice": "Ammount of ETH held by the Casino"
      },
      "depositFunds()": {
        "notice": "Gambler deposits funds to the Casino to be able to place bets"
      },
      "fundsOverview(address)": {
        "notice": "Ammount of ETH in the Casino for a particular gambler"
      },
      "placeBetOnColor(uint8,uint256)": {
        "notice": "Place a bet in the Casino"
      },
      "topUpCasinoReserve()": {
        "notice": "Deposit ETH to the Casino reserve"
      },
      "withdrawFunds(uint256)": {
        "notice": "Gambler withdraws funds from his balance in the Casino to his MetaMask wallet"
      }
    },
    "notice": "Gambler can bet if the number on the roulette is black or red",
    "version": 1
  }
}